:020000040800F2
:1000000010040020050100085B01000853010008EE
:10001000570100084D01000885030008000000009A
:100020000000000000000000000000005F01000868
:1000300051010008000000005D010008B502000841
:10004000950300081F0100081F0100081F01000898
:100050001F0100081F0100081F0100081F01000800
:100060001F0100081F0100081F0100081F010008F0
:100070001F0100081F0100081F0100081F010008E0
:100080001F0100081F0100081F0100081F010008D0
:100090001F0100081F0100081F0100081F010008C0
:1000A0001F0100081F0100081F0100081F010008B0
:1000B0001F0100081F0100081F0100081F010008A0
:1000C0001F0100081F0100081F0100081F01000890
:1000D0001F0100082D0300081F0100081F01000870
:1000E0001F0100081F0100081F010008DFF810D0E1
:1000F00000F01AF80048004701050008AFF300803F
:10010000100400200648804706480047FEE7FEE747
:10011000FEE7FEE7FEE7FEE7FEE7FEE7FEE7FEE7B7
:10012000CD020008ED000008064C074D06E0E0682F
:1001300040F0010394E8070098471034AC42F6D32E
:10014000FFF7D8FF080500082805000800BFFEE7F4
:10015000704700BFFEE700BFFEE77047704770477B
:1001600010B500F001F810BD0CB500200190009012
:100170003348006840F480303149086000BF30489F
:10018000006800F4003000900198401C0190009835
:1001900018B90198B0F5A06FF1D12948006800F4B2
:1001A000003010B10120009001E000200090009884
:1001B000012843D12348006840F01000214908601D
:1001C0000846006820F0070008600846006840F014
:1001D000020008601A4840681949486008464068AB
:1001E00048600846406840F48060486008464068BF
:1001F00020F47C1048600846406840F4E8104860ED
:100200000846006840F08070086000BF0C48006835
:1002100000F000700028F9D00948406820F0030081
:10022000074948600846406840F00200486000BF47
:100230000348406800F00C000828F9D10CBD00000C
:10024000001002400020024030B500BF4821B1F14B
:10025000807F01D301201DE021F07F40401E4FF040
:10026000E022506150170F22002807DA13071D0EF5
:100270000E4B00F00F04241F1D5503E013071C0E46
:100280000B4B1C5400BF00204FF0E0229061072070
:10029000106100200028D9D14FF0E020006920F043
:1002A00001004FF0E021086130BD000018ED00E0D2
:1002B00000E400E00448006820B103480068401EE4
:1002C00001490860704700000000002010B5134885
:1002D000006840F001001149086008464068104974
:1002E00008400E494860084600680E4908400B491E
:1002F00008600846006820F48020086008464068CE
:1003000020F4FE0048604FF41F008860FFF728FFCC
:100310004FF000600449086010BD0000001002406A
:100320000000FFF8FFFFF6FE08ED00E010B507E063
:10033000074800F01EF8841C214606A000F03CF897
:100340002021034800F008F80128F1D010BD00007A
:100350000038014025630A0002460020B1F5007F05
:1003600000D100BF13880B400BB1012000E000203A
:10037000704701468888C0F308007047C1F308023F
:100380008280704700BFFEE7002001490860704787
:10039000082C004010B50348007800F005F8FFF77E
:1003A000F3FF10BD0400002000F07F01014A11603E
:1003B00070470000002C00400FB4054B10B503A996
:1003C000044A029800F017F810BC5DF814FB000016
:1003D000CD0400080800002002E008C8121F08C170
:1003E000002AFAD170477047002001E001C1121FB6
:1003F000002AFBD170472DE9F84F9946924688466E
:100400000546002706E025280AD051464A4690476F
:100410006D1C7F1C28780028F5D13846BDE8F88F80
:10042000002315F8011F18462E2915D115F8011FB4
:1004300004232A290DD06FF02F022978A1F130046E
:10044000092C09D800EB800002EB400008446D1C29
:10045000F3E758F8040B6D1C2A78002ADDD0632AD4
:1004600007D0732A0FD0104651464A4690477F1C4A
:100470002AE018F8042B8DF8002000218DF80110D7
:100480006E46012103E058F8046B4FF0FF315A0724
:100490004FF0000401D409E0641C84420BDA8C4262
:1004A000FADB325D002AF7D105E0641C8C42FCDBEC
:1004B000305D0028F9D1274404E016F8010B5146BD
:1004C0004A469047641EF8D26D1CA3E770B50446F7
:1004D0000D4600BF80210948FFF73EFF0128F9D1F2
:1004E000A1B20648FFF74AFF00BF40210348FFF7CB
:1004F00033FF0128F9D1002070BD00000038014011
:10050000FFF7A2FE00BFFEE728050008000000205C
:100510000C000000D8030008340500080C0000207F
:1005200004040000E8030008000000007F00000051
:0405300000000000C7
:04000005080000ED02
:00000001FF
