:020000040800F2
:100000001004002005010008F1020008E9020008C0
:10001000ED0200084D010008AD08000800000000D6
:10002000000000000000000000000000F9030008CC
:100030005101000800000000B50300083106000867
:100040001F0100081F0100081F0100081F01000810
:100050001F0100081F01000853010008610100088A
:100060001F0100081F0100081F0100081F010008F0
:100070001F0100081F0100081F0100081F010008E0
:100080001F0100081F0100081F0100081F010008D0
:100090001F0100081F0100081F0100081F010008C0
:1000A0001F0100081F0100081F0100081F010008B0
:1000B000190700081F0100081F0100081F010008A0
:1000C0001F0100081F0100081F0100081F01000890
:1000D0001F0100085D0800081F0100081F0100083B
:1000E0001F0100081F0100081F010008DFF810D0E1
:1000F00000F01AF800480047D9090008AFF3008063
:10010000100400200648804706480047FEE7FEE747
:10011000FEE7FEE7FEE7FEE7FEE7FEE7FEE7FEE7B7
:1001200049060008ED000008064C074D06E0E068AF
:1001300040F0010394E8070098471034AC42F6D32E
:10014000FFF7D8FF000A0008200A000800BFFEE7FA
:10015000704710B500F0C6F9012000F00DF810BD91
:1001600010B5022000F00EF820B1012000F004F9D3
:1001700000F00CF910BD0000014908607047000054
:100180001404014001460020034A12680A400AB1E3
:10019000012000E0002070471404014008B501214F
:1001A000102000F019F94FF40050ADF800000320C2
:1001B0008DF8020010208DF803006946014800F018
:1001C00003F808BD001001402DE9F041024600256A
:1001D0000026002000230024002791F803C00CF023
:1001E0000F0591F803C00CF0100CBCF1000F03D008
:1001F00091F802C04CEA050591F800C0BCF1000F6F
:1002000031D0146800202BE04FF0010C0CFA00F301
:10021000B1F800C00CEA03069E4220D183004FF0E3
:100220000F0C0CFA03F7BC4305FA03FC4CEA040478
:1002300091F803C0BCF1280F06D14FF0010C0CFA65
:1002400000FCC2F814C00AE091F803C0BCF1480FEA
:1002500005D14FF0010C0CFA00FCC2F810C0401C94
:100260000828D1D31460B1F800C0BCF1FF0F34DD11
:10027000546800202EE000F1080C4FF0010808FA45
:100280000CF3B1F800C00CEA03069E4221D18300B2
:100290004FF00F0C0CFA03F7BC4305FA03FC4CEAD1
:1002A000040491F803C0BCF1280F05D100F1080C3B
:1002B00008FA0CF8C2F8148091F803C0BCF1480F9A
:1002C00007D100F1080C4FF0010808FA0CF8C2F849
:1002D0001080401C0828CED35460BDE8F0810AB1DC
:1002E000016100E04161704700BFFEE700BFFEE72B
:1002F0007047000070B5002100230F22C47804B3BA
:10030000154C246804F4E064C4F5E064210AC1F1EA
:100310000403CA40447804FA03F18478144021436A
:1003200009010E4C0678A155047804F01F0501243C
:10033000AC4005786D11AD0005F1E025C5F8004130
:1003400009E0047804F01F050124AC40044D067850
:10035000761145F8264070BD0CED00E000E400E0A9
:1003600080E100E002490143024A11607047000049
:100370000000FA050CED00E00349096841EA80013C
:10038000014A116070470000007000400748006893
:1003900040F00200054908600548006840F004008C
:1003A0000349086000BF00BF30BF704700700040C5
:1003B00010ED00E07047000029B1064AD2690243FF
:1003C000044BDA6104E0034AD2698243014BDA61EB
:1003D000704700000010024029B1064A92690243AA
:1003E000044B9A6104E0034A92698243014B9A618B
:1003F0007047000000100240704710B500F002F88E
:1004000010BD00000CB5002001900090334800683A
:1004100040F480303149086000BF3048006800F483
:10042000003000900198401C0190009818B9019884
:10043000B0F5A06FF1D12948006800F4003010B188
:100440000120009001E0002000900098012843D195
:100450002348006840F01000214908600846006801
:1004600020F0070008600846006840F002000860BD
:100470001A4840681949486008464068486008467C
:10048000406840F4806048600846406820F47C1072
:1004900048600846406840F4E81048600846006834
:1004A00040F08070086000BF0C48006800F00070E9
:1004B0000028F9D00948406820F003000749486047
:1004C0000846406840F00200486000BF03484068AA
:1004D00000F00C000828F9D10CBD0000001002400B
:1004E000002002400CB500200190009033480068C5
:1004F00040F480303149086000BF3048006800F4A3
:10050000003000900198401C0190009818B90198A3
:10051000B0F5A06FF1D12948006800F4003010B1A7
:100520000120009001E0002000900098012843D1B4
:100530002348006840F01000214908600846006820
:1005400020F0070008600846006840F002000860DC
:100550001A4840681949486008464068486008469B
:10056000406840F4806048600846406820F47C1091
:1005700048600846406840F4E81048600846006853
:1005800040F08070086000BF0C48006800F0007008
:100590000028F9D00948406820F003000749486066
:1005A0000846406840F00200486000BF03484068C9
:1005B00000F00C000828F9D10CBD0000001002402A
:1005C0000020024030B500BF4821B1F1807F01D347
:1005D00001201DE021F07F40401E4FF0E0225061DD
:1005E00050170F22002807DA13071D0E0E4B00F0DC
:1005F0000F04241F1D5503E013071C0E0B4B1C5446
:1006000000BF00204FF0E022906107201061002021
:100610000028D9D14FF0E020006920F001004FF010
:10062000E021086130BD000018ED00E000E400E0CA
:100630000448006820B103480068401E0149086072
:10064000704700000000002010B51348006840F01B
:1006500001001149086008464068104908400E49E9
:100660004860084600680E4908400B490860084683
:10067000006820F4802008600846406820F4FE00EE
:1006800048604FF41F008860FFF7B7FE4FF000602E
:100690000449086010BD0000001002400000FFF88F
:1006A000FFFFF6FE08ED00E01FB54FF4C060FFF756
:1006B00059FE01210846FFF77FFE1C208DF80C0033
:1006C00000208DF80D008DF80E0001208DF80F0030
:1006D00003A8FFF70FFE40F2E730ADF80400472013
:1006E000ADF800000020ADF8020069464FF08040F0
:1006F00000F062F80121880700F032F8012211466B
:10070000900700F050F80121880700F02FF8002131
:100710000120FFF751FE1FBD10B50121880700F031
:1007200031F8012816D10C480068401C0A490860BD
:1007300008460068B0F5FA7F08D10848C06880F420
:1007400000500649C860002003490860012188075D
:1007500000F009F810BD0000040000200010014066
:10076000CA4302827047CA430282704721B102889D
:1007700042F00102028004E002884FF6FE731A4044
:100780000280704730B50246002000230024158AFD
:1007900005EA0103958905EA010413B10CB10120B2
:1007A00000E0002030BD1AB183890B43838102E051
:1007B00083898B4383817047002202881D4B9842B6
:1007C0000ED01D4B98420BD0B0F1804F08D01B4B80
:1007D000984205D01A4B984202D01A4B984204D145
:1007E0004FF68F731A404B881A43174B984207D025
:1007F000164B984204D04FF6FF431A40CB881A4359
:1008000002808B8883850B8803850A4B98420BD026
:10081000094B984208D00E4B984205D00D4B984298
:1008200002D00D4B984201D10B7A038601238382BB
:1008300070470000002C01400034014000040040DB
:1008400000080040000C0040001000400014004070
:1008500000400140004401400048014010B507E05D
:10086000074800F01EF8841C214606A000F020F87E
:100870002021034800F008F80128F1D010BD000045
:100880000038014025630A0002460020B1F5007FD0
:1008900000D100BF13880B400BB1012000E0002005
:1008A000704701468888C0F30800704700BFFEE724
:1008B0000FB4054B10B503A9044A029800F017F8CD
:1008C00010BC5DF814FB0000C509000808000020FA
:1008D00002E008C8121F08C1002AFAD17047704709
:1008E000002001E001C1121F002AFBD170472DE951
:1008F000F84F9946924688460546002706E0252887
:100900000AD051464A4690476D1C7F1C2878002823
:10091000F5D13846BDE8F88F002315F8011F1846B9
:100920002E2915D115F8011F04232A290DD06FF0A7
:100930002F022978A1F13004092C09D800EB80009E
:1009400002EB400008446D1CF3E758F8040B6D1CE3
:100950002A78002ADDD0632A07D0732A0FD01046E8
:1009600051464A4690477F1C2AE018F8042B8DF820
:10097000002000218DF801106E46012103E058F897
:10098000046B4FF0FF315A074FF0000401D409E027
:10099000641C84420BDA8C42FADB325D002AF7D108
:1009A00005E0641C8C42FCDB305D0028F9D1274453
:1009B00004E016F8010B51464A469047641EF8D2EF
:1009C0006D1CA3E738B504468DF800006946032086
:1009D000ABBE204638BD0000FFF7F4FDFFF7DEFB9D
:1009E000FFF762FE01210846FFF7E6FC00224FF404
:1009F00000510248FFF773FC00BFFEE70010014002
:100A0000200A0008000000200C000000D0080008A8
:100A10002C0A00080C00002004040000E008000874
:0C0A2000000000000000000000000000CA
:04000005080000ED02
:00000001FF
