:020000040800F2
:1000000020040020050100081F0300081703000852
:100010001B0300084D010008350700080000000020
:1000200000000000000000000000000019040008AB
:1000300051010008000000002103000871050008BC
:100040001F0100081F0100081F0100081F01000810
:100050001F0100081F0100081F0100081F01000800
:100060001F0100081F0100081F0100081F010008F0
:100070001F0100081F0100081F0100081F010008E0
:100080001F0100081F0100081F0100081F010008D0
:100090001F0100081F0100081F0100081F010008C0
:1000A0001F0100081F0100081F0100081F010008B0
:1000B0001F0100081F0100081F0100081F010008A0
:1000C0001F0100081F0100081F0100081F01000890
:1000D0001F0100081F0100081F0100081F01000880
:1000E0001F0100081F0100081F010008DFF810D0E1
:1000F00000F01AF800480047BD070008AFF3008081
:10010000200400200648804706480047FEE7FEE737
:10011000FEE7FEE7FEE7FEE7FEE7FEE7FEE7FEE7B7
:1001200089050008ED000008064C074D06E0E06870
:1001300040F0010394E8070098471034AC42F6D32E
:10014000FFF7D8FF100800083008000800BFFEE7DE
:100150007047000000B585B0012144F2040000F0B2
:10016000E1F84FF40070ADF8100018208DF813007E
:1001700003208DF8120004A9144800F041F84FF450
:100180008060ADF8100004208DF8130003208DF876
:10019000120004A90D4800F033F84FF4E13000904C
:1001A0000020ADF80400ADF80600ADF80800ADF889
:1001B0000C000C20ADF80A006946054800F02EFA44
:1001C0000121034800F010FA05B000BD000801400D
:1001D0000038014008B50121102000F0A3F84FF4C9
:1001E0000050ADF8000003208DF8020010208DF8BB
:1001F00003006946014800F003F808BD0010014003
:100200002DE9F041024600250026002000230024AD
:10021000002791F803C00CF00F0591F803C00CF013
:10022000100CBCF1000F03D091F802C04CEA050598
:1002300091F800C0BCF1000F31D0146800202BE011
:100240004FF0010C0CFA00F3B1F800C00CEA030601
:100250009E4220D183004FF00F0C0CFA03F7BC43F1
:1002600005FA03FC4CEA040491F803C0BCF1280F22
:1002700006D14FF0010C0CFA00FCC2F814C00AE0E1
:1002800091F803C0BCF1480F05D14FF0010C0CFAF6
:1002900000FCC2F810C0401C0828D1D31460B1F88B
:1002A00000C0BCF1FF0F34DD546800202EE000F1E7
:1002B000080C4FF0010808FA0CF3B1F800C00CEA82
:1002C00003069E4221D183004FF00F0C0CFA03F776
:1002D000BC4305FA03FC4CEA040491F803C0BCF1EA
:1002E000280F05D100F1080C08FA0CF8C2F81480A8
:1002F00091F803C0BCF1480F07D100F1080C4FF092
:10030000010808FA0CF8C2F81080401C0828CED367
:100310005460BDE8F08100BFFEE700BFFEE7704714
:100320007047000029B1064A92690243044B9A6162
:1003300004E0034A92698243014B9A6170470000CE
:100340000010024030B500210022002400232D4D72
:100350006D6805F00C0121B1042905D0082923D1CD
:1003600005E0294D056022E0274D05601FE0254D81
:100370006D6805F47012234D6D6805F48034022514
:1003800005EB92421CB9214D554305600BE01D4D14
:100390006D6805F400351DB11C4D5543056002E044
:1003A000194D5543056002E0174D056000BF00BFC1
:1003B000144D6D6805F0F0010909154D6B5C056879
:1003C000DD4045600F4D6D6805F4E061090A104D90
:1003D0006B5C4568DD4085600A4D6D6805F46051D1
:1003E000C90A0B4D6B5C4568DD40C560054D6D6805
:1003F00005F44041890B074D6B5CC568B5FBF3F50F
:10040000056130BD0010024000127A0000093D0075
:100410000000002010000020704710B500F002F826
:1004200010BD00000CB5002001900090334800681A
:1004300040F480303149086000BF3048006800F463
:10044000003000900198401C0190009818B9019864
:10045000B0F5A06FF1D12948006800F4003010B168
:100460000120009001E0002000900098012843D175
:100470002348006840F010002149086008460068E1
:1004800020F0070008600846006840F0020008609D
:100490001A4840681949486008464068486008465C
:1004A000406840F4806048600846406820F47C1052
:1004B00048600846406840F4E81048600846006814
:1004C00040F08070086000BF0C48006800F00070C9
:1004D0000028F9D00948406820F003000749486027
:1004E0000846406840F00200486000BF034840688A
:1004F00000F00C000828F9D10CBD000000100240EB
:100500000020024030B500BF4821B1F1807F01D307
:1005100001201DE021F07F40401E4FF0E02250619D
:1005200050170F22002807DA13071D0E0E4B00F09C
:100530000F04241F1D5503E013071C0E0B4B1C5406
:1005400000BF00204FF0E0229061072010610020E2
:100550000028D9D14FF0E020006920F001004FF0D1
:10056000E021086130BD000018ED00E000E400E08B
:100570000448006820B103480068401E0149086033
:10058000704700001400002010B51348006840F0C8
:1005900001001149086008464068104908400E49AA
:1005A0004860084600680E4908400B490860084644
:1005B000006820F4802008600846406820F4FE00AF
:1005C00048604FF41F008860FFF727FF4FF000607E
:1005D0000449086010BD0000001002400000FFF850
:1005E000FFFFF6FE08ED00E021B1828942F40052DF
:1005F000828104E082894DF6FF731A408281704740
:1006000002460020B1F5007F00D100BF13880B40E7
:100610000BB1012000E00020704700002DE9F047F9
:1006200086B005460E460024A24600BFA14600271C
:10063000B08900B100BF2F462C8A4CF6FF700440F1
:10064000F08804432C82AC894EF6F3100440B08845
:1006500031890843718908430443AC81AC8A4FF661
:10066000FF400440B0890443AC8201A8FFF76AFE52
:100670001F48874202D1DDF810A001E0DDF80CA090
:10068000A88900F4004040B10AEBCA0000EB0A1050
:1006900031684900B0FBF1F807E00AEBCA0000EB53
:1006A0000A1031688900B0FBF1F86420B8FBF0F063
:1006B00004012009642101FB1089A88900F400408D
:1006C00040B1322000EBC900B0FBF1F000F00700B0
:1006D000044308E0322000EB09106421B0FBF1F084
:1006E00000F00F0004432C8106B0BDE8F087000045
:1006F00000380140C1F308028280704710B50446FB
:1007000012E000BF80210A48FFF77AFF0128F9D1E3
:1007100021780748FFF7EEFF00BF40210448FFF7AC
:100720006FFF0128F9D1641C20780028E9D110BDA1
:100730000038014000BFFEE7014A024900F013B84B
:10074000890700081800002002E008C8121F08C12D
:10075000002AFAD170477047002001E001C1121F42
:10076000002AFBD170472DE9F04116460F4604469A
:10077000002503E03946B047641C6D1C2078002832
:10078000F8D12846BDE8F08170B504460D4600BF9B
:1007900080210948FFF734FF0128F9D1A1B20648AA
:1007A000FFF7A8FF00BF40210348FFF729FF0128FA
:1007B000F9D1002070BD000000380140FFF7A2FE13
:1007C000FFF708FDFFF7C6FC05E003A0FFF796FF63
:1007D00009A0FFF7B1FFF8E755534152545F536545
:1007E0006E64537472696E673A2048656C6C6F2052
:1007F000576F6C72640A00007072696E74663A20FA
:1008000048656C6C6F20576F726C64210A000000A1
:1008100030080008000000201C0000004807000805
:100820004C0800081C0000200404000058070008C1
:100830000000000001020304010203040607080986
:0C08400002040608000000000000000098
:04000005080000ED02
:00000001FF
