:020000040800F2
:10000000200400200501000889030008810300087E
:1000100085030008790100089D0700080000000022
:100020000000000000000000000000008104000843
:100030007D010008000000008B030008D9050008BE
:10004000AD0700081F0100081F0100081F0100087C
:100050001F0100081F0100081F0100081F01000800
:100060001F0100081F0100081F0100081F010008F0
:100070001F0100081F0100081F0100081F010008E0
:100080001F0100081F0100081F0100081F010008D0
:100090001F0100081F0100081F0100081F010008C0
:1000A0001F0100081F0100081F0100081F010008B0
:1000B0001F0100081F0100081F0100081F010008A0
:1000C0001F0100081F0100081F0100081F01000890
:1000D0001F0100081F0100081F0100081F01000880
:1000E0001F0100081F0100081F010008DFF810D0E1
:1000F00000F030F80048004799090008AFF300808D
:10010000200400200648804706480047FEE7FEE737
:10011000FEE7FEE7FEE7FEE7FEE7FEE7FEE7FEE7B7
:10012000F1050008ED00000830B50B46014600203F
:100130002022012409E021FA02F59D4205D303FAA9
:1001400002F5491B04FA02F52844151EA2F101022A
:10015000F1DC30BD064C074D06E0E06840F00103DD
:1001600094E8070098471034AC42F6D3FFF7C2FF7B
:10017000240A0008440A000800BFFEE77047000098
:100180000B4908604FF0E021096941F001014FF08F
:10019000E022116100BF064909680029FBD14FF038
:1001A000E021096921F001014FF0E022116170475F
:1001B0001400002000B585B0012144F2040000F0D5
:1001C000E5F84FF40070ADF8100018208DF813001A
:1001D00003208DF8120004A9144800F041F84FF4F0
:1001E0008060ADF8100004208DF8130003208DF816
:1001F000120004A90D4800F033F84FF4E1300090EC
:100200000020ADF80400ADF80600ADF80800ADF828
:100210000C000C20ADF80A006946054800F032FADF
:100220000121034800F014FA05B000BD00080140A8
:100230000038014008B50121102000F0A7F84FF464
:100240000050ADF8000003208DF8020010208DF85A
:1002500003006946014800F003F808BD00100140A2
:100260002DE9F0410246002500260020002300244D
:10027000002791F803C00CF00F0591F803C00CF0B3
:10028000100CBCF1000F03D091F802C04CEA050538
:1002900091F800C0BCF1000F31D0146800202BE0B1
:1002A0004FF0010C0CFA00F3B1F800C00CEA0306A1
:1002B0009E4220D183004FF00F0C0CFA03F7BC4391
:1002C00005FA03FC4CEA040491F803C0BCF1280FC2
:1002D00006D14FF0010C0CFA00FCC2F814C00AE081
:1002E00091F803C0BCF1480F05D14FF0010C0CFA96
:1002F00000FCC2F810C0401C0828D1D31460B1F82B
:1003000000C0BCF1FF0F34DD546800202EE000F186
:10031000080C4FF0010808FA0CF3B1F800C00CEA21
:1003200003069E4221D183004FF00F0C0CFA03F715
:10033000BC4305FA03FC4CEA040491F803C0BCF189
:10034000280F05D100F1080C08FA0CF8C2F8148047
:1003500091F803C0BCF1480F07D100F1080C4FF031
:10036000010808FA0CF8C2F81080401C0828CED307
:100370005460BDE8F0810AB1016100E0416170475D
:1003800000BFFEE700BFFEE77047704729B1064A8D
:1003900092690243044B9A6104E0034A92698243E2
:1003A000014B9A61704700000010024030B50021F7
:1003B0000022002400232D4D6D6805F00C0121B1B1
:1003C000042905D0082923D105E0294D056022E044
:1003D000274D05601FE0254D6D6805F47012234D13
:1003E0006D6805F48034022505EB92421CB9214D5D
:1003F000554305600BE01D4D6D6805F400351DB1DA
:100400001C4D5543056002E0194D5543056002E05F
:10041000174D056000BF00BF144D6D6805F0F00179
:100420000909154D6B5C0568DD4045600F4D6D6831
:1004300005F4E061090A104D6B5C4568DD4085609C
:100440000A4D6D6805F46051C90A0B4D6B5C456837
:10045000DD40C560054D6D6805F44041890B074DD1
:100460006B5CC568B5FBF3F5056130BD001002405B
:1004700000127A0000093D0000000020100000205A
:10048000704710B500F002F810BD00000CB5002058
:10049000019000903348006840F480303149086092
:1004A00000BF3048006800F4003000900198401C04
:1004B0000190009818B90198B0F5A06FF1D12948C2
:1004C000006800F4003010B10120009001E000202D
:1004D00000900098012843D12348006840F01000A4
:1004E000214908600846006820F0070008600846B7
:1004F000006840F0020008601A48406819494860E6
:100500000846406848600846406840F4806048609B
:100510000846406820F47C1048600846406840F473
:10052000E81048600846006840F08070086000BF2E
:100530000C48006800F000700028F9D009484068B5
:1005400020F00300074948600846406840F0020078
:10055000486000BF0348406800F00C000828F9D14B
:100560000CBD0000001002400020024030B500BF6A
:100570004821B1F1807F01D301201DE021F07F40AF
:10058000401E4FF0E022506150170F22002807DA7A
:1005900013071D0E0E4B00F00F04241F1D5503E022
:1005A00013071C0E0B4B1C5400BF00204FF0E02221
:1005B00090610720106100200028D9D14FF0E02081
:1005C000006920F001004FF0E021086130BD00001B
:1005D00018ED00E000E400E00448006820B10348A2
:1005E0000068401E014908607047000014000020A8
:1005F00010B51348006840F0010011490860084632
:100600004068104908400E494860084600680E4995
:1006100008400B4908600846006820F48020086004
:100620000846406820F4FE0048604FF41F008860D0
:10063000FFF727FF4FF000600449086010BD00007D
:10064000001002400000FFF8FFFFF6FE08ED00E09A
:1006500021B1828942F40052828104E082894DF600
:10066000FF731A408281704702460020B1F5007F77
:1006700000D100BF13880B400BB1012000E0002027
:10068000704700002DE9F04786B005460E4600246D
:10069000A24600BFA1460027B08900B100BF2F4687
:1006A0002C8A4CF6FF700440F08804432C82AC89FD
:1006B0004EF6F3100440B08831890843718908432D
:1006C0000443AC81AC8A4FF6FF400440B089044338
:1006D000AC8201A8FFF76AFE1F48874202D1DDF80D
:1006E00010A001E0DDF80CA0A88900F4004040B1A2
:1006F0000AEBCA0000EB0A1031684900B0FBF1F8C0
:1007000007E00AEBCA0000EB0A1031688900B0FB71
:10071000F1F86420B8FBF0F004012009642101FB2A
:100720001089A88900F4004040B1322000EBC900D4
:10073000B0FBF1F000F00700044308E0322000EBCA
:1007400009106421B0FBF1F000F00F0004432C818C
:1007500006B0BDE8F087000000380140C1F3080290
:100760008280704710B5044612E000BF80210A481D
:10077000FFF77AFF0128F9D121780748FFF7EEFF4C
:1007800000BF40210448FFF76FFF0128F9D1641C26
:1007900020780028E9D110BD0038014000BFFEE7F5
:1007A0000020014908607047082C004010B503483C
:1007B000007800F005F8FFF7F3FF10BD18000020E7
:1007C00000F07F01014A116070470000002C0040DA
:1007D0000FB4054B10B503A9044A029800F018F8AD
:1007E00010BC5DF814FB0000650900081C00002027
:1007F00002E008C8121F08C1002AFAD170477047EA
:10080000002001E001C1121F002AFBD17047000047
:100810002DE9FF4F89B09B460446002506E02528B8
:100820000BD05A460B999047641C6D1C2078002809
:10083000F5D10DB02846BDE8F08F0027B84601225B
:10084000474900E0074314F8013F203B02FA03F058
:100850000842F7D120782E2819D114F8010F47F05B
:1008600004072A280ED06FF02F022078A0F1300163
:1008700009290CD808EB880102EB410100EB0108C3
:10088000641CF2E70A98641C50F8048B0A902078E4
:100890000028CED0642808D0692806D075281ED03C
:1008A0005A460B9990476D1C58E00A994FF00A0977
:1008B00001C90A91002802DA40422D2102E03905DF
:1008C00004D52B218DF82010012103E0F90704D075
:1008D0002021F7E78A4608AE0DE00021FAE70A99E1
:1008E0004FF00A0901C90A91F7E74946FFF71CFCD6
:1008F000303106F8011D0028F7D1ADEB060000F1FC
:100900002009780701D44FF00108C84502DDA8EBA3
:10091000090000E000208046002706E008A85A46AB
:10092000C05D0B9990476D1C7F1C5745F6DB04E0BA
:1009300030205A460B9990476D1CB8F10001A8F180
:100940000108F5DC05E016F8010B5A460B999047B3
:100950006D1CB9F10001A9F10109F4DC641C65E723
:100960000928010070B504460D4600BF80210948E2
:10097000FFF77AFE0128F9D1A1B20648FFF7EEFE93
:1009800000BF40210348FFF76FFE0128F9D1002086
:1009900070BD0000003801400024FFF7E7FDFFF7BD
:1009A00049FCFFF707FC11A0FFF7DCFE1CE041212A
:1009B0001248FFF7D3FE00224FF400511048FFF712
:1009C000DAFC1048FFF7DCFB012251030C48FFF76B
:1009D000D2FC0C48FFF7D4FB2146641C0AA0FFF7A9
:1009E000F7FE0CA0FFF7F4FEE1E7000048656C6C31
:1009F0006F20576F726C64210000000000380140C6
:100A00000010014040420F0069203D202564202D48
:100A10002D20000048656C6C6F20576F726C64214C
:100A20000A000000440A0008000000202000000026
:100A3000F0070008640A00082000002000040000FD
:100A40000008000800000000010203040102030482
:100A50000607080902040608000000007F000000E5
:040A60000000000092
:04000005080000ED02
:00000001FF
