:020000040800F2
:10000000500400200501000819040008110400082C
:1000100015040008C1010008570D00080000000089
:10002000000000000000000000000000CD070008F4
:10003000C501000800000000E9040008310A0008BA
:100040001F0100081F0100081F0100081F01000810
:100050001F0100081F010008FD0100080B02000835
:100060001F0100081F0100081F0100081F010008F0
:100070001F0100081F0100081F0100081F010008E0
:100080001F0100081F0100081F0100081F010008D0
:100090001F0100081F0100081F0100081F010008C0
:1000A0001F0100081F0100081F0100081F010008B0
:1000B0001F0100081F0100081F0100081F010008A0
:1000C0001F0100081F0100081F0100081F01000890
:1000D0001F010008E50B00081F0100081F010008B0
:1000E0001F0100081F0100081F010008DFF810D0E1
:1000F00000F030F800480047890F0008AFF3008097
:10010000500400200648804706480047FEE7FEE707
:10011000FEE7FEE7FEE7FEE7FEE7FEE7FEE7FEE7B7
:10012000490A0008ED00000830B50B4601460020E2
:100130002022012409E021FA02F59D4205D303FAA9
:1001400002F5491B04FA02F52844151EA2F101022A
:10015000F1DC30BD064C074D06E0E06840F00103DD
:1001600094E8070098471034AC42F6D3FFF7C2FF7B
:10017000CC0F0008EC0F000810B5012000F0D6F9F4
:10018000002000F0D3F910BD08B501460020009012
:10019000034800900098084400900098008808BD2B
:1001A000006C004008B500220092044A0092009AB8
:1001B00002440092009A116008BD0000006C0040EB
:1001C00000BFFEE7704700000B4908604FF0E021D8
:1001D000096941F001014FF0E022116100BF0649B9
:1001E00009680029FBD14FF0E021096921F00101E4
:1001F0004FF0E022116170471400002010B500F0AC
:100200005BFB012000F00CF810BD10B5022000F0DF
:100210000DF820B1012000F049F900F051F910BDAE
:1002200001490860704700001404014001460020A5
:10023000034A12680A400AB1012000E0002070471A
:100240001404014000B585B0012144F2040000F01F
:100250005DF94FF40070ADF8100018208DF8130010
:1002600003208DF8120004A9144800F041F84FF45F
:100270008060ADF8100004208DF8130003208DF885
:10028000120004A90D4800F033F84FF4E13000905B
:100290000020ADF80400ADF80600ADF80800ADF898
:1002A0000C000C20ADF80A006946054800F0DEFCA1
:1002B0000121034800F0C0FC05B000BD000801406A
:1002C0000038014008B50121102000F01FF94FF45B
:1002D0000050ADF8000003208DF8020010208DF8CA
:1002E00003006946014800F003F808BD0010014012
:1002F0002DE9F041024600250026002000230024BD
:10030000002791F803C00CF00F0591F803C00CF022
:10031000100CBCF1000F03D091F802C04CEA0505A7
:1003200091F800C0BCF1000F31D0146800202BE020
:100330004FF0010C0CFA00F3B1F800C00CEA030610
:100340009E4220D183004FF00F0C0CFA03F7BC4300
:1003500005FA03FC4CEA040491F803C0BCF1280F31
:1003600006D14FF0010C0CFA00FCC2F814C00AE0F0
:1003700091F803C0BCF1480F05D14FF0010C0CFA05
:1003800000FCC2F810C0401C0828D1D31460B1F89A
:1003900000C0BCF1FF0F34DD546800202EE000F1F6
:1003A000080C4FF0010808FA0CF3B1F800C00CEA91
:1003B00003069E4221D183004FF00F0C0CFA03F785
:1003C000BC4305FA03FC4CEA040491F803C0BCF1F9
:1003D000280F05D100F1080C08FA0CF8C2F81480B7
:1003E00091F803C0BCF1480F07D100F1080C4FF0A1
:1003F000010808FA0CF8C2F81080401C0828CED377
:100400005460BDE8F0810AB1016100E041617047CC
:1004100000BFFEE700BFFEE77047000070B5002197
:1004200000230F22C47804B3154C246804F4E0645C
:10043000C4F5E064210AC1F10403CA40447804FA17
:1004400003F184781440214309010E4C0678A1552C
:10045000047804F01F050124AC4005786D11AD004F
:1004600005F1E025C5F8004109E0047804F01F0516
:100470000124AC40044D0678761145F8264070BD45
:100480000CED00E000E400E080E100E002490143FF
:10049000024A1160704700000000FA050CED00E010
:1004A000014908627047000000000E4203490968D4
:1004B00041EA8001014A116070470000007000406D
:1004C0000748006840F002000549086005480068D8
:1004D00040F004000349086000BF00BF30BF704710
:1004E0000070004010ED00E07047000029B1064A9E
:1004F000D2690243044BDA6104E0034AD2698243C1
:10050000014BDA61704700000010024029B1064A31
:1005100092690243044B9A6104E0034A9269824360
:10052000014B9A61704700000010024001490860C9
:10053000704700004004424230B5002100220024F0
:1005400000232D4D6D6805F00C0121B1042905D063
:10055000082923D105E0294D056022E0274D0560DB
:100560001FE0254D6D6805F47012234D6D6805F48C
:100570008034022505EB92421CB9214D554305609C
:100580000BE01D4D6D6805F400351DB11C4D554344
:10059000056002E0194D5543056002E0174D056006
:1005A00000BF00BF144D6D6805F0F0010909154D3D
:1005B0006B5C0568DD4045600F4D6D6805F4E061DA
:1005C000090A104D6B5C4568DD4085600A4D6D6819
:1005D00005F46051C90A0B4D6B5C4568DD40C56090
:1005E000054D6D6805F44041890B074D6B5CC5688E
:1005F000B5FBF3F5056130BD0010024000127A0032
:1006000000093D00000000201000002010B5014648
:100610000022002300204A11012A02D1094C23683C
:1006200006E0022A02D1074C236A01E0054C636A06
:1006300001F01F02012494401C400CB1012000E095
:10064000002010BD0010024000210B4A11700A4A20
:10065000203A82F82010012802D0042808D103E0B3
:100660000121054A117004E00521034A117000E0E0
:1006700000BF00BF70470000201002400149086021
:10068000704700003C0442420249096A0143014AA2
:10069000116270470010024010B501214FF0C050A8
:1006A000FFF724FF0120FFF7FBFE0420FFF76CFD9E
:1006B0004AF28751884222D0FFF75EFD0120FFF702
:1006C000C3FF00BF4120FFF7A1FF0028FAD04FF47D
:1006D0008070FFF7D9FF0120FFF7D0FF00F05AF834
:1006E00000F062F847F6FF7000F044F800F052F8AE
:1006F0004AF287510420FFF755FD002010BD01206C
:10070000FCE700000348008840F010000149088021
:100710007047000004280040034800884FF6EF713E
:100720000840014908807047042800400021002249
:10073000002308480188001D0388001F0288914299
:1007400004D0001D008840EA0240704743EA01409F
:10075000FBE700001828004000B50246FFF7D2FF73
:10076000100C03490880091D0A80FFF7D5FF00BD62
:100770001828004000B50246FFF7C4FFC2F303404B
:1007800003490880091D0A80FFF7C6FF00BD00006D
:100790000828004000BF0348008800F0200000281F
:1007A000F9D0704704280040074800884FF6F771D9
:1007B00008400549088000BF0348008800F0080091
:1007C0000028F9D07047000004280040704710B599
:1007D00000F002F810BD00000CB500200190009060
:1007E0003348006840F480303149086000BF304829
:1007F000006800F4003000900198401C01900098BF
:1008000018B90198B0F5A06FF1D12948006800F43B
:10081000003010B10120009001E00020009000980D
:10082000012843D12348006840F0100021490860A6
:100830000846006820F0070008600846006840F09D
:10084000020008601A484068194948600846406834
:1008500048600846406840F4806048600846406848
:1008600020F47C1048600846406840F4E810486076
:100870000846006840F08070086000BF0C480068BF
:1008800000F000700028F9D00948406820F003000B
:10089000074948600846406840F00200486000BFD1
:1008A0000348406800F00C000828F9D10CBD000096
:1008B00000100240002002400CB500200190009082
:1008C0003348006840F480303149086000BF304848
:1008D000006800F4003000900198401C01900098DE
:1008E00018B90198B0F5A06FF1D12948006800F45B
:1008F000003010B10120009001E00020009000982D
:10090000012843D12348006840F0100021490860C5
:100910000846006820F0070008600846006840F0BC
:10092000020008601A484068194948600846406853
:1009300048600846406840F4806048600846406867
:1009400020F47C1048600846406840F4E810486095
:100950000846006840F08070086000BF0C480068DE
:1009600000F000700028F9D00948406820F003002A
:10097000074948600846406840F00200486000BFF0
:100980000348406800F00C000828F9D10CBD0000B5
:10099000001002400020024010B503A000F0DEF974
:1009A0000748FFF7D9FE10BD506C6561736520657F
:1009B0006E74657220612074696D653A00000000F4
:1009C000008C864730B500BF4821B1F1807F01D34C
:1009D00001201DE021F07F40401E4FF0E0225061D9
:1009E00050170F22002807DA13071D0E0E4B00F0D8
:1009F0000F04241F1D5503E013071C0E0B4B1C5442
:100A000000BF00204FF0E02290610720106100201D
:100A10000028D9D14FF0E020006920F001004FF00C
:100A2000E021086130BD000018ED00E000E400E0C6
:100A30000448006820B103480068401E014908606E
:100A4000704700001400002010B51348006840F003
:100A500001001149086008464068104908400E49E5
:100A60004860084600680E4908400B49086008467F
:100A7000006820F4802008600846406820F4FE00EA
:100A800048604FF41F008860FFF7A1FE4FF0006040
:100A90000449086010BD0000001002400000FFF88B
:100AA000FFFFF6FE08ED00E0F0B589B006464348CA
:100AB000B6FBF0F5B6FBF0F100FB11674FF4616097
:100AC000B7FBF0F006904FF46160B7FBF0F100FB6C
:100AD00011703C21B0FBF1F007904FF46160B7FB5F
:100AE000F0F100FB11703C21B0FBF1F201FB1200B0
:100AF000089040F2B27416E004F0030028B96420B4
:100B0000B4FBF0F100FB114030B94FF4C870B4FBF6
:100B1000F0F100FB114010B94FF4B77001E040F262
:100B20006D102D1A641C04F0030028B96420B4FB76
:100B3000F0F100FB114030B94FF4C870B4FBF0F194
:100B400000FB114010B94FF4B77001E040F26D1096
:100B5000A842D1D9039404F0030028B96420B4FB5F
:100B6000F0F100FB114030B94FF4C870B4FBF0F164
:100B700000FB114018B91D201149886002E01C20BB
:100B80000F498860012404E00D4850F824002D1A14
:100B9000641C0B4850F82400A842F5D90494681C42
:100BA0000590DDE906120898CDE90012029005A033
:100BB00003A90EC900F0D2F809B0F0BD80510100C0
:100BC00018000020252E34642D252E32642D252E6C
:100BD000326420252E32643A252E32643A252E3294
:100BE000640A000010B507E0074800F0ABF8841C69
:100BF000214606A000F0B2F82021034800F028F8B2
:100C00000128F1D010BD00000038014025630A0022
:100C100008B54FF4C060FFF739FC25208DF80000BF
:100C200000208DF801008DF8020001208DF80300EE
:100C30006846FFF7F3FB08BD21B1828942F40052F8
:100C4000828104E082894DF6FF731A4082817047E9
:100C500002460020B1F5007F00D100BF13880B4091
:100C60000BB1012000E00020704700002DE9F047A3
:100C700086B005460E460024A24600BFA1460027C6
:100C8000B08900B100BF2F462C8A4CF6FF7004409B
:100C9000F08804432C82AC894EF6F3100440B088EF
:100CA00031890843718908430443AC81AC8A4FF60B
:100CB000FF400440B0890443AC8201A8FFF73CFC2C
:100CC0001F48874202D1DDF810A001E0DDF80CA03A
:100CD000A88900F4004040B10AEBCA0000EB0A10FA
:100CE00031684900B0FBF1F807E00AEBCA0000EBFD
:100CF0000A1031688900B0FBF1F86420B8FBF0F00D
:100D000004012009642101FB1089A88900F4004036
:100D100040B1322000EBC900B0FBF1F000F0070059
:100D2000044308E0322000EB09106421B0FBF1F02D
:100D300000F00F0004432C8106B0BDE8F0870000EE
:100D40000038014001468888C0F308007047C1F3AD
:100D500008028280704700BFFEE700000FB4054B19
:100D600010B503A9044A029800F018F810BC5DF809
:100D700014FB0000550F00084C00002002E008C8DA
:100D8000121F08C1002AFAD170477047002001E005
:100D900001C1121F002AFBD1704700002DE9FF4F4F
:100DA0008BB09A460F460546002606E025280BD054
:100DB00052460D9990476D1C761C28780028F5D175
:100DC0000FB03046BDE8F08F0024A04601226049F4
:100DD00000E0044315F8013F203B02FA03F008420B
:100DE000F7D128782E2817D115F8010F44F0040404
:100DF0002A280ED06FF02F022878A0F1300109299F
:100E00000AD808EB880102EB410100EB01086D1CD8
:100E1000F2E757F8048B6D1C287869283ED006DC71
:100E20000028CDD063280BD0642804D136E0732885
:100E300010D075284BD052460D999047761C85E00E
:100E400017F8040B8DF8000000208DF80100E9462A
:100E5000012003E057F8049B4FF0FF3061074FF08B
:100E6000000401D40AE0641C44450DDA8442FADB34
:100E700019F804100029F6D106E0641C8442FCDB5A
:100E800019F804100029F8D1264404E019F8010BE0
:100E900052460D999047641EF8D257E001CF4FF0AB
:100EA0000A0B002802DA40422D2102E0210504D578
:100EB0002B218DF82410012103E0E10705D020212A
:100EC000F7E70DF1200908910CE00021F9E701CFC7
:100ED0004FF00A0BF9E75946FFF726F901F1300206
:100EE00009F8012D0028F6D1ADEB090000F1200B27
:100EF000600701D44FF00108D84502DDA8EB0B00D4
:100F000000E000208046002406E009A85246005D6B
:100F10000D999047641C761C08988442F5DB04E028
:100F2000302052460D999047761CB8F10001A8F187
:100F30000108F5DC05E019F8010B52460D999047C0
:100F4000761CBBF10001ABF1010BF4DC6D1C34E746
:100F50000928010070B504460D4600BF80210948EC
:100F6000FFF776FE0128F9D1A1B20648FFF7EFFEA0
:100F700000BF40210348FFF76BFE0128F9D1002094
:100F800070BD000000380140FFF71CFDFFF79AF923
:100F9000FFF782FB0446FFF755F9FFF739FE002201
:100FA0004FF400510748FFF72EFA0CB9FFF7F4FC95
:100FB00007E0FFF7BBFB0546FFF776FD0248FFF7AA
:100FC00003F9F6E70010014040420F00EC0F000863
:100FD00000000020500000007C0D00083C100008BC
:100FE00050000020000400008C0D000800000000EC
:100FF00001020304010203040607080902040608AB
:1010000000000000000000001F0000001C000000A5
:101010001F0000001E0000001F0000001E00000056
:101020001F0000001F0000001E0000001F00000045
:0C1030001E0000001F0000000000000077
:04000005080000ED02
:00000001FF
