:020000040800F2
:100000001004002005010008F9030008F1030008AE
:10001000F50300084D0100088908000800000000F1
:100020000000000000000000000000008105000842
:1000300051010008000000003D050008B907000854
:10004000990800081F0100081F0100081F0100088F
:100050001F0100081F01000889010008970100081E
:100060001F0100081F0100081F0100081F010008F0
:100070001F0100081F0100081F0100081F010008E0
:100080001F0100081F0100081F0100081F010008D0
:100090001F0100081F0100081F0100081F010008C0
:1000A0001F0100081F0100081F0100081F010008B0
:1000B0001F0100081F0100081F0100081F010008A0
:1000C0001F0100081F0100081F0100081F01000890
:1000D0001F010008310800081F0100081F01000867
:1000E0001F0100081F0100081F010008DFF810D0E1
:1000F00000F01AF800480047050A0008AFF3008036
:10010000100400200648804706480047FEE7FEE747
:10011000FEE7FEE7FEE7FEE7FEE7FEE7FEE7FEE7B7
:10012000D1070008ED000008064C074D06E0E06826
:1001300040F0010394E8070098471034AC42F6D32E
:10014000FFF7D8FF4C0A00086C0A000800BFFEE762
:10015000704700000B4908604FF0E021096941F049
:1001600001014FF0E022116100BF06490968002932
:10017000FBD14FF0E021096921F001014FF0E022AD
:10018000116170470000002010B500F06FFA0120E7
:1001900000F00CF810BD10B5022000F00DF820B1F1
:1001A000012000F0A7F900F0AFF910BD0149086087
:1001B000704700001404014001460020034A126801
:1001C0000A400AB1012000E00020704714040140F9
:1001D000002123498279002A3AD00A46126803682E
:1001E0009A430B461A600A1D126803689A430B1D56
:1001F0001A60027911440A6803681A430A60184AAF
:100200000832126803689A43154B08331A601A1DA6
:10021000126803689A43124B0C331A604279102A11
:100220000ED11A1F126803681A430D4B08331A6067
:100230001A1D126803681A43094B0C331A600DE04B
:100240000749427911440A6803681A430A6005E0C5
:10025000027911440A6803689A430A6070470000F3
:100260000004014008B50121102000F079F94FF495
:100270000050ADF8000003208DF8020010208DF82A
:1002800003006946014800F023F808BD0010014052
:1002900030B500228B071C0F0F2303FA04F20B4B1F
:1002A0008C1053F824309343084C8D1044F82530BB
:1002B00023468C1053F824308C07240F00FA04F4E2
:1002C0002343024C8D1044F8253030BD0800014016
:1002D0002DE9F041024600250026002000230024DD
:1002E000002791F803C00CF00F0591F803C00CF043
:1002F000100CBCF1000F03D091F802C04CEA0505C8
:1003000091F800C0BCF1000F31D0146800202BE040
:100310004FF0010C0CFA00F3B1F800C00CEA030630
:100320009E4220D183004FF00F0C0CFA03F7BC4320
:1003300005FA03FC4CEA040491F803C0BCF1280F51
:1003400006D14FF0010C0CFA00FCC2F814C00AE010
:1003500091F803C0BCF1480F05D14FF0010C0CFA25
:1003600000FCC2F810C0401C0828D1D31460B1F8BA
:1003700000C0BCF1FF0F34DD546800202EE000F116
:10038000080C4FF0010808FA0CF3B1F800C00CEAB1
:1003900003069E4221D183004FF00F0C0CFA03F7A5
:1003A000BC4305FA03FC4CEA040491F803C0BCF119
:1003B000280F05D100F1080C08FA0CF8C2F81480D7
:1003C00091F803C0BCF1480F07D100F1080C4FF0C1
:1003D000010808FA0CF8C2F81080401C0828CED397
:1003E0005460BDE8F0810AB1016100E041617047ED
:1003F00000BFFEE700BFFEE77047000070B50021B8
:1004000000230F22C47804B3154C246804F4E0647C
:10041000C4F5E064210AC1F10403CA40447804FA37
:1004200003F184781440214309010E4C0678A1554C
:10043000047804F01F050124AC4005786D11AD006F
:1004400005F1E025C5F8004109E0047804F01F0536
:100450000124AC40044D0678761145F8264070BD65
:100460000CED00E000E400E080E100E0024901431F
:10047000024A1160704700000000FA050CED00E030
:100480001FB54FF4C060FFF7F1FF0121052000F018
:1004900067F807208DF80C0000208DF80D008DF80E
:1004A0000E0001208DF80F0003A8FFF7A7FF022020
:1004B000ADF8080003208DF80A0048208DF80B00E5
:1004C00002A90B48FFF704FF01210020FFF7E0FE1F
:1004D0000220009000208DF804000C208DF805000B
:1004E00001208DF806006846FFF772FE1FBD000070
:1004F000000801400349096841EA8001014A11608E
:1005000070470000007000400748006840F002009B
:10051000054908600548006840F004000349086088
:1005200000BF00BF30BF70470070004010ED00E01A
:100530000149086070470000A0000E4270470000AB
:1005400029B1064AD2690243044BDA6104E0034A46
:10055000D2698243014BDA6170470000001002400B
:1005600029B1064A92690243044B9A6104E0034AA6
:1005700092698243014B9A6170470000001002406B
:10058000704710B500F002F810BD00000CB5002057
:10059000019000903348006840F480303149086091
:1005A00000BF3048006800F4003000900198401C03
:1005B0000190009818B90198B0F5A06FF1D12948C1
:1005C000006800F4003010B10120009001E000202C
:1005D00000900098012843D12348006840F01000A3
:1005E000214908600846006820F0070008600846B6
:1005F000006840F0020008601A48406819494860E5
:100600000846406848600846406840F4806048609A
:100610000846406820F47C1048600846406840F472
:10062000E81048600846006840F08070086000BF2D
:100630000C48006800F000700028F9D009484068B4
:1006400020F00300074948600846406840F0020077
:10065000486000BF0348406800F00C000828F9D14A
:100660000CBD000000100240002002400CB500202C
:10067000019000903348006840F4803031490860B0
:1006800000BF3048006800F4003000900198401C22
:100690000190009818B90198B0F5A06FF1D12948E0
:1006A000006800F4003010B10120009001E000204B
:1006B00000900098012843D12348006840F01000C2
:1006C000214908600846006820F0070008600846D5
:1006D000006840F0020008601A4840681949486004
:1006E0000846406848600846406840F480604860BA
:1006F0000846406820F47C1048600846406840F492
:10070000E81048600846006840F08070086000BF4C
:100710000C48006800F000700028F9D009484068D3
:1007200020F00300074948600846406840F0020096
:10073000486000BF0348406800F00C000828F9D169
:100740000CBD0000001002400020024030B500BF88
:100750004821B1F1807F01D301201DE021F07F40CD
:10076000401E4FF0E022506150170F22002807DA98
:1007700013071D0E0E4B00F00F04241F1D5503E040
:1007800013071C0E0B4B1C5400BF00204FF0E0223F
:1007900090610720106100200028D9D14FF0E0209F
:1007A000006920F001004FF0E021086130BD000039
:1007B00018ED00E000E400E00448006820B10348C0
:1007C0000068401E014908607047000000000020DA
:1007D00010B51348006840F0010011490860084650
:1007E0004068104908400E494860084600680E49B4
:1007F00008400B4908600846006820F48020086023
:100800000846406820F4FE0048604FF41F008860EE
:10081000FFF7B7FE4FF000600449086010BD00000C
:10082000001002400000FFF8FFFFF6FE08ED00E0B8
:1008300010B507E0074800F01EF8841C214606A00A
:1008400000F03CF82021034800F008F80128F1D01E
:1008500010BD00000038014025630A000246002058
:10086000B1F5007F00D100BF13880B400BB1012010
:1008700000E00020704701468888C0F308007047F8
:10088000C1F308028280704700BFFEE700200149E3
:1008900008607047082C004010B50348007800F04D
:1008A00005F8FFF7F3FF10BD0400002000F07F0102
:1008B000014A116070470000002C00400FB4054B46
:1008C00010B503A9044A029800F017F810BC5DF8AF
:1008D00014FB0000D10900080800002002E008C84D
:1008E000121F08C1002AFAD170477047002001E0AA
:1008F00001C1121F002AFBD170472DE9F84F99461C
:10090000924688460546002706E025280AD051462B
:100910004A4690476D1C7F1C28780028F5D1384640
:10092000BDE8F88F002315F8011F18462E2915D1B0
:1009300015F8011F04232A290DD06FF02F02297802
:10094000A1F13004092C09D800EB800002EB400033
:1009500008446D1CF3E758F8040B6D1C2A78002A34
:10096000DDD0632A07D0732A0FD0104651464A467D
:1009700090477F1C2AE018F8042B8DF800200021F6
:100980008DF801106E46012103E058F8046B4FF01A
:10099000FF315A074FF0000401D409E0641C84427F
:1009A0000BDA8C42FADB325D002AF7D105E0641CD9
:1009B0008C42FCDB305D0028F9D1274404E016F8B6
:1009C000010B51464A469047641EF8D26D1CA3E7BE
:1009D00070B504460D4600BF80210948FFF73EFF71
:1009E0000128F9D1A1B20648FFF74AFF00BF402114
:1009F0000348FFF733FF0128F9D1002070BD000044
:100A000000380140FFF7A2FEFFF72CFCFFF738FD8E
:100A100001210807FFF794FD0120FFF789FD10E091
:100A200000224FF400510748FFF7DDFC0648FFF7AE
:100A300091FB012251030348FFF7D5FC0248FFF761
:100A400089FBEDE700100140400D03006C0A00082F
:100A5000000000200C000000DC080008780A0008F4
:100A60000C00002004040000EC0800080000000056
:080A70007F00000000000000FF
:04000005080000ED02
:00000001FF
