:020000040800F2
:1000000020040020050100085D04000855040008D4
:10001000590400084D010008BF0900080000000055
:10002000000000000000000000000000B50500080E
:1000300009020008000000009D040008ED07000808
:10004000D10900081F0100081F0100081F01000856
:100050001F0100081F010008410200084F020008AC
:100060001F0100081F0100081F0100081F010008F0
:100070001F0100081F0100081F0100081F010008E0
:100080001F0100081F0100081F0100081F010008D0
:100090001F0100081F0100081F0100081F010008C0
:1000A0001F0100081F0100081F0100081F010008B0
:1000B0001F0100081F0100081F0100081F010008A0
:1000C0001F0100081F0100081F0100081F01000890
:1000D0001F010008650800081F0100081F01000833
:1000E0001F0100081F0100081F010008DFF810D0E1
:1000F00000F01AF8004800473D0B0008AFF30080FD
:10010000200400200648804706480047FEE7FEE737
:10011000FEE7FEE7FEE7FEE7FEE7FEE7FEE7FEE7B7
:1001200005080008ED000008064C074D06E0E068F1
:1001300040F0010394E8070098471034AC42F6D32E
:10014000FFF7D8FF9C0B0008BC0B000800BFFEE7C0
:1001500000B58BB00121084600F0A2F912480090CA
:10016000124801901020029001200390002004907A
:1001700040200590002006900790202008904FF422
:100180004050099000200A906946094800F01EF886
:10019000012280210448001F00F086FB0121044851
:1001A00000F008F80BB000BD043801401900002031
:1001B0004400024021B1026842F00102026004E002
:1001C00002684FF6FE731A400260704710B50022B5
:1001D000026847F6F0739A430C6A8B6823430C69F4
:1001E00023434C6923438C692343CC6923434C6AE2
:1001F00023438C6A23431A430260CB6843600B6835
:1002000083604B68C36010BD704700000B490860F5
:100210004FF0E021096941F001014FF0E022116146
:1002200000BF064909680029FBD14FF0E0210969A8
:1002300021F001014FF0E02211617047140000200D
:1002400010B500F02DFA012000F00CF810BD10B52B
:10025000022000F00DF820B1012000F001F900F0BB
:1002600009F910BD014908607047000014040140FD
:1002700001460020034A12680A400AB1012000E04A
:10028000002070471404014000B585B0012144F2FC
:10029000040000F015F94FF40070ADF810001820BC
:1002A0008DF8130003208DF8120004A9144800F003
:1002B00041F84FF48060ADF8100004208DF8130071
:1002C00003208DF8120004A90D4800F033F84FF414
:1002D000E13000900020ADF80400ADF80600ADF864
:1002E0000800ADF80C000C20ADF80A00694605487E
:1002F00000F0F0FA0121034800F0CAFA05B000BD91
:10030000000801400038014008B50121102000F02C
:10031000D7F84FF40050ADF8000003208DF802002C
:1003200010208DF803006946014800F003F808BD6D
:10033000001001402DE9F041024600250026002072
:1003400000230024002791F803C00CF00F0591F85A
:1003500003C00CF0100CBCF1000F03D091F802C0E8
:100360004CEA050591F800C0BCF1000F31D01468CB
:1003700000202BE04FF0010C0CFA00F3B1F800C0A4
:100380000CEA03069E4220D183004FF00F0C0CFABA
:1003900003F7BC4305FA03FC4CEA040491F803C0DC
:1003A000BCF1280F06D14FF0010C0CFA00FCC2F88A
:1003B00014C00AE091F803C0BCF1480F05D14FF01A
:1003C000010C0CFA00FCC2F810C0401C0828D1D364
:1003D0001460B1F800C0BCF1FF0F34DD5468002098
:1003E0002EE000F1080C4FF0010808FA0CF3B1F808
:1003F00000C00CEA03069E4221D183004FF00F0C8F
:100400000CFA03F7BC4305FA03FC4CEA040491F828
:1004100003C0BCF1280F05D100F1080C08FA0CF854
:10042000C2F8148091F803C0BCF1480F07D100F165
:10043000080C4FF0010808FA0CF8C2F81080401CB4
:100440000828CED35460BDE8F0810AB1016100E014
:100450004161704700BFFEE700BFFEE77047000044
:100460000349096841EA8001014A116070470000B0
:10047000007000400748006840F00200054908602D
:100480000548006840F004000349086000BF00BF51
:1004900030BF70470070004010ED00E07047000072
:1004A00029B1064A52690243044B5A6104E0034AE7
:1004B00052698243014B5A617047000000100240AC
:1004C00029B1064A92690243044B9A6104E0034A47
:1004D00092698243014B9A6170470000001002400C
:1004E00030B500210022002400232D4D6D6805F059
:1004F0000C0121B1042905D0082923D105E0294D9B
:10050000056022E0274D05601FE0254D6D6805F46C
:100510007012234D6D6805F48034022505EB92427C
:100520001CB9214D554305600BE01D4D6D6805F468
:1005300000351DB11C4D5543056002E0194D554372
:10054000056002E0174D056000BF00BF144D6D68E7
:1005500005F0F0010909154D6B5C0568DD4045604B
:100560000F4D6D6805F4E061090A104D6B5C45683C
:10057000DD4085600A4D6D6805F46051C90A0B4D78
:100580006B5C4568DD40C560054D6D6805F4404114
:10059000890B074D6B5CC568B5FBF3F5056130BD94
:1005A0000010024000127A0000093D000000002007
:1005B00010000020704710B500F002F810BD0000D8
:1005C0000CB50020019000903348006840F4803062
:1005D0003149086000BF3048006800F400300090E6
:1005E0000198401C0190009818B90198B0F5A06FCF
:1005F000F1D12948006800F4003010B101200090CA
:1006000001E0002000900098012843D123480068B1
:1006100040F01000214908600846006820F00700FB
:1006200008600846006840F0020008601A48406808
:10063000194948600846406848600846406840F4E8
:10064000806048600846406820F47C104860084696
:10065000406840F4E81048600846006840F0807048
:10066000086000BF0C48006800F000700028F9D056
:100670000948406820F00300074948600846406880
:1006800040F00200486000BF0348406800F00C00E2
:100690000828F9D10CBD00000010024000200240E3
:1006A0000CB50020019000903348006840F4803081
:1006B0003149086000BF3048006800F40030009005
:1006C0000198401C0190009818B90198B0F5A06FEE
:1006D000F1D12948006800F4003010B101200090E9
:1006E00001E0002000900098012843D123480068D1
:1006F00040F01000214908600846006820F007001B
:1007000008600846006840F0020008601A48406827
:10071000194948600846406848600846406840F407
:10072000806048600846406820F47C1048600846B5
:10073000406840F4E81048600846006840F0807067
:10074000086000BF0C48006800F000700028F9D075
:100750000948406820F0030007494860084640689F
:1007600040F00200486000BF0348406800F00C0001
:100770000828F9D10CBD0000001002400020024002
:1007800030B500BF4821B1F1807F01D301201DE0C9
:1007900021F07F40401E4FF0E022506150170F22A1
:1007A000002807DA13071D0E0E4B00F00F04241F5C
:1007B0001D5503E013071C0E0B4B1C5400BF0020FB
:1007C0004FF0E02290610720106100200028D9D16D
:1007D0004FF0E020006920F001004FF0E0210861B7
:1007E00030BD000018ED00E000E400E004480068BF
:1007F00020B103480068401E0149086070470000AE
:100800001400002010B51348006840F001001149A1
:10081000086008464068104908400E49486008468C
:1008200000680E4908400B4908600846006820F43B
:10083000802008600846406820F4FE0048604FF4BD
:100840001F008860FFF7B7FE4FF0006004490860A2
:1008500010BD0000001002400000FFF8FFFFF6FE90
:1008600008ED00E010B507E0074800F09FF8841C91
:10087000214606A000F0BEF82021034800F01DF834
:100880000128F1D010BD00000038014025630A00A6
:1008900021B1828942F40052828104E082894DF6BE
:1008A000FF731A40828170471AB1838A0B43838297
:1008B00002E0838A8B438382704702460020B1F5B1
:1008C000007F00D100BF13880B400BB1012000E076
:1008D000002070472DE9F04786B005460E460024FB
:1008E000A24600BFA1460027B08900B100BF2F4635
:1008F0002C8A4CF6FF700440F08804432C82AC89AB
:100900004EF6F3100440B0883189084371890843DA
:100910000443AC81AC8A4FF6FF400440B0890443E5
:10092000AC8201A8FFF7DCFD1F48874202D1DDF849
:1009300010A001E0DDF80CA0A88900F4004040B14F
:100940000AEBCA0000EB0A1031684900B0FBF1F86D
:1009500007E00AEBCA0000EB0A1031688900B0FB1F
:10096000F1F86420B8FBF0F004012009642101FBD8
:100970001089A88900F4004040B1322000EBC90082
:10098000B0FBF1F000F00700044308E0322000EB78
:1009900009106421B0FBF1F000F00F0004432C813A
:1009A00006B0BDE8F08700000038014001468888A5
:1009B000C0F308007047C1F308028280704700BF8F
:1009C000FEE700000020014908607047082C004045
:1009D00010B50348007800F005F8FFF7F3FF10BDED
:1009E0001800002000F07F01014A116070470000EC
:1009F000002C00400FB4054B10B503A9044A02981F
:100A000000F017F810BC5DF814FB0000090B00089B
:100A10001C00002002E008C8121F08C1002AFAD1F9
:100A200070477047002001E001C1121F002AFBD16E
:100A300070472DE9F84F99469246884605460027AB
:100A400006E025280AD051464A4690476D1C7F1C77
:100A500028780028F5D13846BDE8F88F002315F82E
:100A6000011F18462E2915D115F8011F04232A2924
:100A70000DD06FF02F022978A1F13004092C09D88C
:100A800000EB800002EB400008446D1CF3E758F8CF
:100A9000040B6D1C2A78002ADDD0632A07D0732A44
:100AA0000FD0104651464A4690477F1C2AE018F85E
:100AB000042B8DF8002000218DF801106E460121D5
:100AC00003E058F8046B4FF0FF315A074FF0000471
:100AD00001D409E0641C84420BDA8C42FADB325DFB
:100AE000002AF7D105E0641C8C42FCDB305D002855
:100AF000F9D1274404E016F8010B51464A469047C5
:100B0000641EF8D26D1CA3E770B504460D4600BF05
:100B100080210948FFF7D1FE0128F9D1A1B206488A
:100B2000FFF749FF00BF40210348FFF7C6FE012839
:100B3000F9D1002070BD000000380140FFF720FE11
:100B4000FFF7E2FBFFF7A0FBFFF702FB002403E047
:100B500041200E490855641C012CF9DB012280213B
:100B60000B48FFF7A1FE10E000224FF400510948A6
:100B7000FFF76BFC0848FFF749FB012251030548CA
:100B8000FFF763FC0448FFF741FBEDE71900002085
:100B9000003801400010014040420F00BC0B00082B
:100BA0000000002020000000140A0008DC0B0008F0
:100BB0002000002000040000240A000800000000BB
:100BC00001020304010203040607080902040608DF
:0C0BD000000000007F000000000000009A
:04000005080000ED02
:00000001FF
